S010000070726F6A656374322E73726563EB
S11300000C942A000C94FB000C949D020C94C602E0
S11300100C943C000C943C000C943C000C943C006C
S11300200C943C000C943C000C943C000C943C005C
S11300300C943C000C943C000C943C000C943C004C
S11300400C943C000C943C000C943C000C943C003C
S11300500C943C0011241FBECFE5D8E0DEBFCDBF19
S113006020E0A0E6B0E001C01D92A536B207E1F79A
S11300700E9494010C9478030C94000060E080E0EA
S11300800E9485010E94460360E080E00E9489018D
S1130090109260000BC061E080E00E948D010E941C
S11300A06003809160008F5F8093600080916000A6
S11300B0843188F31092600062E080E00E94850140
S11300C00E94460362E080E00E9489010BC061E067
S11300D080E00E948D010E946003809160008F5F28
S11300E08093600080916000843188F3089562E019
S11300F080E00E943B02813099F460E080E00E943D
S1130100890162E080E00E94850165E081E00E944F
S113011085010E94460362E080E00E94890142C09A
S113012060E080E00E943B02813031F061E080E0D9
S11301300E943B028130B1F561E080E00E948901B8
S113014067E081E00E9485010E94600310926000D4
S113015013C060E080E00E94890161E080E00E94B9
S11301608D0166E081E00E948D010E946003809110
S113017060008F5F8093600080916000843148F359
S113018067E081E00E94890162E080E00E948501CD
S113019065E081E00E9485010E94460362E080E000
S11301A00E948901109260000FC061E080E00E940B
S11301B08D0166E081E00E948D010E9460038091C0
S11301C060008F5F8093600080916000843168F3E9
S11301D065E081E00E94890160E080E00E94850181
S11301E067E081E00E9485010E94460367E081E0A8
S11301F00E94890108951F920F920FB60F92112445
S11302002F933F934F935F936F937F938F939F931A
S1130210AF93BF93EF93FF9362E083E00E94820168
S1130220813011F40E9477000E943E00FF91EF910B
S1130230BF91AF919F918F917F916F915F914F91FA
S11302403F912F910F900FBE0F901F9018950E9411
S1130250900108951F93CF93DF93182FC7E0D0E048
S11302601BC06D2F812F0E9485016C2F812F0E944E
S113027085012FE78AE196E0215080409040E1F724
S113028000C000006D2F812F0E9489016C2F812FE7
S11302900E948901DF5FC150C43018F72FEF80E757
S11302A092E0215080409040E1F700C000001BC064
S11302B06D2F812F0E9485016C2F812F0E94850153
S11302C02FE78AE196E0215080409040E1F700C09A
S11302D000006D2F812F0E9489016C2F812F0E94B5
S11302E08901D150CF5FC83018F32FEF80E792E037
S11302F0215080409040E1F700C00000DF91CF9191
S11303001F9108950E943B02089541E00E94CB0191
S1130310089540E00E94CB0108950E946902089567
S113032061E00E949B01089580E00E94270180E023
S11303300E942A01FCCF6130C1F4813051F028F0D1
S1130340823059F0833069F008958AB38FEF8ABB05
S1130350089587B38FEF87BB089584B38FEF84BB71
S1130360089581B38FEF81BB0895611113C081306B
S113037049F028F0823049F0833051F008958AB36F
S11303801ABA089587B317BA089584B314BA0895AE
S113039081B311BA08954130A1F5813089F028F074
S11303A08230C9F0833011F108952BB381E090E0DD
S11303B002C0880F991F6A95E2F7822B8BBB0895C0
S11303C028B381E090E002C0880F991F6A95E2F794
S11303D0822B88BB089525B381E090E002C0880F8A
S11303E0991F6A95E2F7822B85BB089522B381E0B9
S11303F090E002C0880F991F6A95E2F7822B82BBB6
S11304000895411137C0813091F028F08230D9F03D
S1130410833029F108952BB381E090E002C0880F66
S1130420991F6A95E2F7809582238BBB089528B3C0
S113043081E090E002C0880F991F6A95E2F78095E9
S1130440822388BB089525B381E090E002C0880F21
S1130450991F6A95E2F78095822385BB089522B39C
S113046081E090E002C0880F991F6A95E2F78095B9
S1130470822382BB0895813079F028F08230A9F07C
S11304808330E1F024C089B390E002C0959587954C
S11304906A95E2F78170089586B390E002C095955D
S11304A087956A95E2F78170089583B390E002C05E
S11304B0959587956A95E2F78170089580B390E0E9
S11304C002C0959587956A95E2F78170089580E05A
S11304D00895813089F028F08230C9F0833011F119
S11304E008952BB381E090E002C0880F991F6A95AC
S11304F0E2F782278BBB089528B381E090E002C025
S1130500880F991F6A95E2F7822788BB089525B35F
S113051081E090E002C0880F991F6A95E2F7822774
S113052085BB089522B381E090E002C0880F991F33
S11305306A95E2F7822782BB08951F920F920FB645
S11305400F9211242F933F934F935F936F937F9355
S11305508F939F93AF93BF93EF93FF93E0916300C7
S1130560F0916400309709F00995FF91EF91BF91E4
S1130570AF919F918F917F916F915F914F913F9137
S11305802F910F900FBE0F901F9018951F920F92EE
S11305900FB60F9211242F933F934F935F936F9352
S11305A07F938F939F93AF93BF93EF93FF93E091C8
S11305B06100F0916200309709F00995FF91EF9185
S11305C0BF91AF919F918F917F916F915F914F9167
S11305D03F912F910F900FBE0F901F90189581306F
S11305E069F028F0823089F08330B1F01BC083B702
S11305F08F7B83BF83B7877F83BF14C083B7806437
S113060083BF83B7877F83BF0DC083B78F7B83BFCF
S113061083B7886083BF06C083B7806483BF83B712
S1130620886083BF83B78E7F83BF83B78D7F83BF8B
S113063083B78B7F83BF83B7682B63BF413069F077
S113064028F0423089F04330B1F0089583B78F7EAB
S113065083BF83B78F7D83BF089583B7806183BFD2
S113066083B78F7D83BF089583B78F7E83BF83B79E
S1130670806283BF089583B7806183BF83B780623C
S113068083BF089582BF089513BE089581E191E068
S11306900E94420340E065E080E00E94EF0220E017
S11306A030E008C008B600FEFDCF88B7816088BF7F
S11306B02F5F3F4F24313105A8F30E94440308956E
S11306C08CE090E00E94420340E065E080E00E94FC
S11306D0EF0280E090E007C008B600FEFDCF28B727
S11306E0216028BF01960097B9F30E94440308953E
S10706F0F894FFCFA8
S9030000FC
